{
  "_format": "hh-sol-artifact-1",
  "contractName": "MyDApp",
  "sourceName": "contracts/MyDApp.sol",
  "abi": [
    {
      "anonymous": false,
      "inputs": [
        {
          "indexed": true,
          "internalType": "address",
          "name": "from",
          "type": "address"
        },
        {
          "indexed": true,
          "internalType": "address",
          "name": "to",
          "type": "address"
        },
        {
          "indexed": false,
          "internalType": "uint256",
          "name": "value",
          "type": "uint256"
        },
        {
          "indexed": false,
          "internalType": "string",
          "name": "message",
          "type": "string"
        }
      ],
      "name": "Transfer",
      "type": "event"
    },
    {
      "inputs": [
        {
          "internalType": "address payable",
          "name": "_to",
          "type": "address"
        },
        {
          "internalType": "uint256",
          "name": "_amount",
          "type": "uint256"
        },
        {
          "internalType": "string",
          "name": "_message",
          "type": "string"
        }
      ],
      "name": "sendCrypto",
      "outputs": [],
      "stateMutability": "payable",
      "type": "function"
    }
  ],
  "bytecode": "0x608060405234801561001057600080fd5b506104a4806100206000396000f3fe60806040526004361061001e5760003560e01c80635f5b623714610023575b600080fd5b61003d600480360381019061003891906101c6565b61003f565b005b813414610081576040517f08c379a0000000000000000000000000000000000000000000000000000000008152600401610078906102b5565b60405180910390fd5b8273ffffffffffffffffffffffffffffffffffffffff166108fc839081150290604051600060405180830381858888f193505050501580156100c7573d6000803e3d6000fd5b508273ffffffffffffffffffffffffffffffffffffffff163373ffffffffffffffffffffffffffffffffffffffff167fcd6e659e4c2e75c3bfe47fecaccf39aeb368116a0ee52afb532e07f6cba6c0d184846040516101279291906102d5565b60405180910390a3505050565b600061014761014284610336565b610305565b90508281526020810184848401111561015f57600080fd5b61016a8482856103be565b509392505050565b60008135905061018181610440565b92915050565b600082601f83011261019857600080fd5b81356101a8848260208601610134565b91505092915050565b6000813590506101c081610457565b92915050565b6000806000606084860312156101db57600080fd5b60006101e986828701610172565b93505060206101fa868287016101b1565b925050604084013567ffffffffffffffff81111561021757600080fd5b61022386828701610187565b9150509250925092565b600061023882610366565b6102428185610371565b93506102528185602086016103cd565b61025b8161042f565b840191505092915050565b6000610273600f83610371565b91507f416d6f756e74206d69736d6174636800000000000000000000000000000000006000830152602082019050919050565b6102af816103b4565b82525050565b600060208201905081810360008301526102ce81610266565b9050919050565b60006040820190506102ea60008301856102a6565b81810360208301526102fc818461022d565b90509392505050565b6000604051905081810181811067ffffffffffffffff8211171561032c5761032b610400565b5b8060405250919050565b600067ffffffffffffffff82111561035157610350610400565b5b601f19601f8301169050602081019050919050565b600081519050919050565b600082825260208201905092915050565b600061038d82610394565b9050919050565b600073ffffffffffffffffffffffffffffffffffffffff82169050919050565b6000819050919050565b82818337600083830152505050565b60005b838110156103eb5780820151818401526020810190506103d0565b838111156103fa576000848401525b50505050565b7f4e487b7100000000000000000000000000000000000000000000000000000000600052604160045260246000fd5b6000601f19601f8301169050919050565b61044981610382565b811461045457600080fd5b50565b610460816103b4565b811461046b57600080fd5b5056fea26469706673582212204796258d684c4d8c74b43cfe2190a15f0331779f6c38cce5252b73c1e619fabb64736f6c63430008000033",
  "linkReferences": {},
  "deployedLinkReferences": {}
}